{
  "contractName": "Calculator",
  "abi": [
    {
      "inputs": [
        {
          "name": "num",
          "type": "uint256"
        }
      ],
      "payable": false,
      "stateMutability": "nonpayable",
      "type": "function",
      "constant": false,
      "name": "addToNumber",
      "outputs": []
    },
    {
      "constant": false,
      "inputs": [
        {
          "name": "num",
          "type": "uint256"
        }
      ],
      "name": "substractNumber",
      "outputs": [],
      "payable": false,
      "stateMutability": "nonpayable",
      "type": "function"
    },
    {
      "constant": false,
      "inputs": [
        {
          "name": "num",
          "type": "uint256"
        }
      ],
      "name": "multiplyWithNumber",
      "outputs": [],
      "payable": false,
      "stateMutability": "nonpayable",
      "type": "function"
    },
    {
      "constant": true,
      "inputs": [],
      "name": "getResult",
      "outputs": [
        {
          "name": "",
          "type": "uint256"
        }
      ],
      "payable": false,
      "stateMutability": "view",
      "type": "function"
    },
    {
      "constant": false,
      "inputs": [
        {
          "name": "num",
          "type": "uint256"
        }
      ],
      "name": "divideByNumber",
      "outputs": [],
      "payable": false,
      "stateMutability": "nonpayable",
      "type": "function"
    },
    {
      "inputs": [],
      "payable": false,
      "stateMutability": "nonpayable",
      "type": "constructor"
    },
    {
      "anonymous": false,
      "inputs": [
        {
          "indexed": false,
          "name": "number",
          "type": "uint256"
        }
      ],
      "name": "Result",
      "type": "event"
    }
  ],
  "bytecode": "0x60606040526015600055341561001457600080fd5b610291806100236000396000f30060606040526004361061006d576000357c0100000000000000000000000000000000000000000000000000000000900463ffffffff16806306ccd230146100725780630b7e4e7f14610095578063b4679b06146100b8578063de292789146100db578063f5cb911d14610104575b600080fd5b341561007d57600080fd5b6100936004808035906020019091905050610127565b005b34156100a057600080fd5b6100b66004808035906020019091905050610172565b005b34156100c357600080fd5b6100d960048080359060200190919050506101bd565b005b34156100e657600080fd5b6100ee610208565b6040518082815260200191505060405180910390f35b341561010f57600080fd5b6101256004808035906020019091905050610211565b005b8060008082825401925050819055507fa9bb0fa194e939eadb11be8d62dd4a16e0f5e89f37fb73fa7f0f8446f1abba616000546040518082815260200191505060405180910390a150565b8060008082825403925050819055507fa9bb0fa194e939eadb11be8d62dd4a16e0f5e89f37fb73fa7f0f8446f1abba616000546040518082815260200191505060405180910390a150565b8060008082825402925050819055507fa9bb0fa194e939eadb11be8d62dd4a16e0f5e89f37fb73fa7f0f8446f1abba616000546040518082815260200191505060405180910390a150565b60008054905090565b8060008082825481151561022157fe5b04925050819055507fa9bb0fa194e939eadb11be8d62dd4a16e0f5e89f37fb73fa7f0f8446f1abba616000546040518082815260200191505060405180910390a1505600a165627a7a723058207bc71ae2d249fc446173a296b2e5dc81027276d72e881fb7c56ea6c9362bfa220029",
  "source": "pragma solidity ^0.4.4;\n\ncontract Calculator {\n\n  // Result of the operation are always stored in this variable\n  uint result = 21;\n\n  event Result(uint number);\n\n  function Calculator() {\n    // constructor\n  }\n\n  // returns the result\n  function getResult() constant returns (uint) {\n    return result;\n  }\n\n  // result = result + num\n  function addToNumber(uint num) {\n    result += num;\n    Result(result);\n  }\n\n  // result = result - num\n  function substractNumber(uint num) {\n    result -= num;\n    Result(result);\n  }\n\n  // result = result * num\n  function multiplyWithNumber(uint num) {\n    result *= num;\n    Result(result);\n  }\n\n  // result = result / num\n  function divideByNumber(uint num) {\n    result /= num;\n    Result(result);\n  }\n\n}\n\n",
  "sourcePath": "/Users/markoaras/Documents/Udemy/EthDapp/truffleTest/contracts/Calculator.sol",
  "compiler": {
    "name": "solc",
    "version": "0.4.18+commit.9cf6e910.Emscripten.clang"
  },
  "schemaVersion": "1.0.1",
  "updatedAt": "2018-01-10T12:38:58.846Z"
}